:1000000001C1189518951895189518951895189573
:1000100018951BC0189518951895189508C007C015
:1000200022C085C082C084C083C0189518950F93E4
:100030000FB70F931F932F933F9340D43F912F916E
:100040001F910F910FBF0F9118950F930FB70F933B
:100050001F932F933F93BFD33F912F911F910F91E8
:100060000FBF0F9118950F930FB70F931F932F93F7
:100070003F9300913401109135010F5F1F4F0093A2
:1000800034011093350100913601109137010F5F53
:100090001F4F009336011093370100913B011091DF
:1000A0003C010F5F1F4F00933B0110933C012091D7
:1000B0003201203079F400913801109139012091FA
:1000C0003A010F5F1F4F2F4F0093380110933901F2
:1000D00020933A01223079F400913D0110913E01C4
:1000E00020913F010F5F1F4F2F4F00933D01109351
:1000F0003E0120933F0120913201213079F400919B
:10010000400110914101209142010F5F1F4F2F4F7D
:100110000093400110934101209342013F912F91A0
:100120001F910F910FBF0F9118951895189518955D
:1001300018950DE40093C40000E00093C50000E0B2
:100140000093C00008E10093C10006E00093C200E4
:10015000089500916E00016000936E0001E005BDFE
:100160000091700001600093700006E00093B10000
:10017000089504B5006404BD04B5006804BD04B569
:10018000006104BD04B5006204BD04B5016004BD96
:1001900004B5026004BD00916E00026000936E0021
:1001A00000916E00046000936E00089500271F9177
:1001B0002F91E0E0F1E00193E030E9F7F530D9F775
:1001C0002F931F930895549A3D9A3B9A3C9A3A9ADA
:1001D000399A3898579A219A209A509A509A539A55
:1001E000589858985B98569855985E9A5D9A589A80
:1001F000589808951091C00010721032D9F70093EA
:10020000C6000895F8940FEF0DBF04E00EBFCEDFD7
:10021000A0DFD9DF8EDF002411247894009134010F
:100220000B3128F000913501073B08F072D0F6CF72
:10023000009136010A3120F000913701063000F0BC
:10024000EDCF20913201203071F500913B01063C49
:10025000A0F000913C010D3280F0F8942091330120
:10026000213011F41BD301C021D331E02327209387
:10027000330178948BE391E063D000913801063329
:1002800090F0009139010E3670F000913A01013082
:1002900050F021E02093320188E391E058D080E4CF
:1002A00091E055D0CFD2089520913201223081F4CF
:1002B00000913D01063360F000913E010E3640F0A2
:1002C00000913F01013020F0D2D28DE391E03FD088
:1002D000089520913201213091F4009140010435BC
:1002E00070F0009141010A3E50F0009142010A3243
:1002F00030F022E02093320180E491E028D008958C
:10030000D1D1F894002700933601009337017894F7
:10031000089500E11BB110271BB95ED0F894E0E00E
:10032000F1E00191003011F065DFFBCF0027009371
:1003300034010093350100932600789408950895C0
:10034000F894FC0100270193008378940895F894B1
:10035000FC01002701930193008378940895FB0129
:10036000DC0102C005900D9241505040D8F708952D
:100370004920646F6E74206B6E6F772077686174AC
:100380002074686572652069732062757420492045
:1003900073757370656374206974206C6F6F6B7311
:1003A000206C696B652061206761726261646765BA
:1003B0000D0A00636F6D6D616E643A206F70656E3B
:1003C000000000002FE789EA93E021508040904030
:1003D000E1F700C00000089560917003062E000C44
:1003E000770B4FE150E080E091E069C2ECE5F1E08D
:1003F000119281E0E936F807D9F7089545984398B6
:100400008DE04498459A45988150D9F7439A43988E
:100410000895459843988DE0449A459A45988150AF
:10042000D9F7439A43980895089508955F982998B5
:10043000E6E4F1E007C028985F9A5F9881E0EE3427
:10044000F80751F081918111F6CF289A5F9A5F9851
:1004500081E0EE34F807B1F7299A29980895E6E487
:10046000F1E01782168215821482138212821182A1
:1004700010820895882399F1813009F442C08230B6
:1004800009F450C0833009F455C0843009F464C0C5
:10049000853009F473C0863009F482C0873009F4CE
:1004A00091C0883009F492C0893009F495C0109247
:1004B0004D018A3009F496C08B3009F4A3C081E065
:1004C00080934C0180934B0180934A0180934901B2
:1004D000109248018093470110924601A7CF81E016
:1004E00080934D0180934C0180934B0180934A018E
:1004F0008093490180934801109247011092460170
:1005000095CF10924D0180934C0180934B01109236
:100510004A0110924901109248011092470110922D
:10052000460184CF81E080934D0180934C0110926D
:100530004B01CACF81E080934D0180934C018093A1
:100540004B0180934A011092490110924801809317
:100550004701109246016ACF10924D0181E08093CD
:100560004C0180934B0110924A01109249018093F3
:100570004801809347011092460158CF81E0809353
:100580004D0110924C0180934B0180934A011092CF
:10059000490180934801809347011092460146CF5C
:1005A00081E080934D0110924C0180934B01809328
:1005B0004A0180934901809348018093470110923A
:1005C000460134CF81E080934D019DCF81E080933F
:1005D0004D0180934C01E9CF81E080934D018093E0
:1005E0004C01D1CF10924C0110924B0110924A0154
:1005F000109249011092480181E0809347011092C6
:10060000460114CF10924C0110924B0180CF4598B7
:100610004398ECE5F1E007C0449A459A459881E09B
:10062000E936F80751F081918111F6CF4498459A47
:10063000459881E0E936F807B1F7439A4398089561
:100640004198429A419A88EF2CE031E016C023305D
:10065000D9F02230E1F0213011F12223D9F0E22F3C
:10066000F0E096B191709327E559FE4F90832150A9
:100670004298429A8F5F883081F08330C8F32430EB
:1006800031F7E0E0F0E0EDCFE4E0F0E0EACFE3E0E6
:10069000F0E0E7CFE1E0F0E0E4CF41980895E2E058
:1006A000F0E0DFCF6F927F928F929F92AF92BF92D6
:1006B000CF92DF92EF92FF920F931F93CF93DF932E
:1006C00000D0CDB7DEB7BCDF8BE6A82E81E0B82E18
:1006D0009EE4692E91E0792E2CE5822E21E0922E67
:1006E00036EEC32ED12C00E010E0E12CF12C91E08D
:1006F00042E022C080818F5F8083833070F010924F
:1007000040011092410110924201E114F10409F4F8
:100710005AC080913201813061F10D301105C1F074
:100720008FEFE81AF80AEFEF6E1A7E0AFAE0CF1A96
:10073000D1088FEF881A980AF50181915F010F5F48
:100740001F4FF3018111D6CF10820D30110541F7F3
:100750000F900F90DF91CF911F910F91FF90EF902D
:10076000DF90CF90BF90AF909F908F907F906F90D1
:1007700008952091690130916A012C153D0568F6B4
:10078000D0926A01C0926901ECE5F1E0119281E03A
:10079000E936F807D9F790935C01F40190834A8316
:1007A000998335DF20917801309179014A819981CF
:1007B0002C153D0508F0B1CFD0927901C092780197
:1007C000E0927A01AACF853118F040933201A8CF88
:1007D00010923201A5CF10924D0110924C0110924F
:1007E0004B0110924A011092490110924801109257
:1007F0004701109246011ADE8091450158988130D8
:10080000C1F0823059F05B98589A81E0809345019D
:1008100080917B012FDE10924301089558985B9AD6
:1008200083E0809345018091440124DE10924301CE
:1008300008955B98589A82E08093450180915B010E
:1008400019DEE9CF10927B0110925B0110924401F6
:1008500010926A0110926901ECE5F1E0119281E0D9
:10086000E936F807D9F781E080935C01D0CE90910A
:100870005C0181E08927ECE5F1E0119291E0E93635
:10088000F907D9F780935C01E0917A01EE2329F012
:10089000F0E0E45AFE4F81E08083B9CE8BE0809394
:1008A0007B018093440180935B01A8CD8AE0809313
:0E08B0007B018093440180935B01ABCD0895E2
:00000001FF
