:10000000ABC01895189518951895189518951895CA
:100010001895189518951895189518951895189578
:1000200006C05EC043C05DC05CC0189518950F93B4
:100030000FB70F931F932F933F93009100011091DF
:1000400001010F5F1F4F0093000110930101009108
:100050000201109103010F5F1F4F009302011093E3
:10006000030100910401109105010F5F1F4F0093E0
:1000700004011093050100910601109107010F5F23
:100080001F4F009306011093070100910801109182
:1000900009010F5F1F4F00930801109309013F9161
:1000A0002F911F910F910FBF0F9118950F930FB7BD
:1000B0000F930F930091C600053639F0043651F0C6
:1000C0000F910F910FBF0F9118950F910F910FBFC7
:1000D0000F9118950F910F910FBF0F9118951895CB
:1000E0001895189503E30093C40000E00093C50041
:1000F00000E00093C00008EF0093C10006E0009309
:10010000C200089500916E00016000936E0001E04E
:1001100005BD089500271F912F91E0E0F1E00193C4
:10012000E030E9F7F330D9F72F931F930895399A08
:100130003A9A389A43983D9A559A5D9A3C9A229AEF
:10014000569A5098589A08951091C0001072103223
:10015000D9F70093C60008950FEF0DBF02E00EBF60
:10016000D9DFE5DFCFDF82E091E06BD091D07894EA
:1001700000910001023128F0009101010E3A08F0CF
:1001800051C020911201213081F4429A0091040162
:10019000003158F0009105010C3038F084E091E016
:1001A00050D020E0209312014298009106010031C6
:1001B00030F0009107010A3410F017D159D0489956
:1001C00001C0BED020911401213081F42A9A0091FF
:1001D0000801003158F0009109010A3938F088E02F
:1001E00091E02FD020E0209314012A9820910C0157
:1001F0002130B1F4419A449A459A2A9A0091020119
:10020000003170F0009103010A3C50F082E091E06F
:1002100018D020E020930C014598419844982A98E2
:10022000CBD4A6CF01E018B1102718B9F894002755
:10023000009300010093010100932600789498CF69
:100240000895F894FC0100270193008378940895A1
:10025000F894002700930401009305017894089511
:10026000F894002700930201009303017894089505
:10027000F8940027009306010093070178940895ED
:10028000F8940027009308010093090178940895D9
:1002900089E191E090932F0180932E0165D65C9ABD
:1002A000299AE6E4F1E010828EE4818382E482837D
:1002B0008CE4838385E5848385E4858380EC98EAF8
:1002C000A0E0BBE080934C0190934D01A0934E01C0
:1002D000B0934F018FEF9FEFAFEFB0E080934201FB
:1002E00090934301A0934401B093450180EC98EAB8
:1002F000A0E0B1E08093140290931502A09316023F
:10030000B093170255D41AD185E090E09093310153
:100310008093300108955E980895089581E0809358
:100320001001089581E080930E01089581E080938B
:100330000C01809102019091030183DF08950895DB
:10034000F5DF81E080930E010895CF93DF93EC01F8
:1003500081E0809312018AA5833629F58BA58F361B
:1003600011F58CA58D36F9F48DA58D36E1F48EA5A9
:100370008136C9F48FA58E36B1F488A9843699F4F4
:1003800089A98A3381F48AA9803269F48BA98F36CE
:1003900051F48CA9803739F48DA9853621F48EA9C2
:1003A0008E3609F4CDDF8AA5843691F48BA5853687
:1003B00079F48CA58E3661F48DA5893649F48EA525
:1003C000853631F48FA5843619F481E080931001CD
:1003D0008FE68AA78BE68BA762E070E0CE011AD386
:1003E00037DFDF91CF9108950895CF9362E371E0F5
:1003F00082E5FAD180932D01813009F080C080938D
:10040000140136DF3DDFC0911201C1117DC082E3CE
:1004100091E01CD280932D01813009F06AC0E0E5A3
:10042000F1E088E090E095878487168280EE8783EC
:1004300081E4808782E281878AE082878EEE8387EB
:100440008DE890E793A382A385E694EF95A384A318
:1004500083E682A781E683A782E784A784E685A74F
:100460008AE386A780E287A710922D018C2F90E067
:10047000FC01E25AFE4FDC01AE5CBE4F2C9122A380
:1004800040912E0150912F01FA01E80FF91F2083AE
:1004900080912D01C1E0C80FC0932D01C43030F30D
:1004A000E0E5F1E085E4868780EC98EAA0E0BFE231
:1004B000828F938FA48FB58F80914C0190914D01C5
:1004C000A0914E01B0914F01868F978FA0A3B1A349
:1004D00081E1878B17866AE070E0CF019BD2809123
:1004E0002D01E0912E01F0912F01E80FF11D1082F6
:1004F0000BC0E0912E01F0912F01108205C0E09118
:100500002E01F0912F011082CF910895CF93C62F25
:100510002998880F8E7734D58C2F32D5299ACF9190
:1005200008952998880F8E7780682AD580E028D58D
:10053000299A08956FE081E0E9DF0895FBDF6DE817
:100540008AE2E4DF6EE38BE2E1DF6EE18CE2DEDF84
:1005500060E08DE2DBDF60E485E1D8DF6DE381E11F
:10056000D5DF84E1DEDF982F937021F4682F63607C
:1005700084E1CCDF08953F924F925F926F927F9219
:100580008F929F92AF92BF92CF92DF92EF92FF92A3
:100590000F931F93CF93DF93982EF62EE72E442EC2
:1005A000822E332E58018CE0981609F4BEC0EEE07E
:1005B0009E1609F4D9C084E0B4DF682F6F7784E019
:1005C000A5DF8AE0AEDF682F60688AE09FDF60E029
:1005D00081E09CDF512C612C712C41145104610489
:1005E0007104D9F010E000E005C010E307E702C095
:1005F00010E102E1CF2DDE2DC12CD12C76016991C5
:1006000089E084DFFFEFCF1ADF0AEF0AFF0AC41484
:10061000D504E604F70498F302C010E000E0692D69
:1006200081E074DF8CE0981206C08DE07ADF682FDD
:1006300060688DE06BDF84E074DFF82EC0E0D0E00E
:10064000116009C084E06DDFF82E2196CF3CE7E011
:10065000DE0709F4A2C08F2D8123A1F3A6C001708B
:10066000F02211F0C2E001C0C1E0FCE09F12A9C07D
:100670008AE057DF482E8CE054DF282F2770A9F03E
:10068000842D90E00197880F991F880F991F880F7C
:10069000991F820F911DAA2797FDA095BA2FF501EA
:1006A00080839183A283B38311C0842D90E0880F4F
:1006B000991F880F991F880F991FAA2797FDA0954A
:1006C000BA2FF50180839183A283B383442071F014
:1006D000842D813108F080E1482E512C612C712C41
:1006E000411451046104710429F46BC0412C512C54
:1006F00032014394082D132DC12CD12C760189E0B1
:1007000010DFF80181938F01FFEFCF1ADF0AEF0AA4
:10071000FF0AC414D504E604F70488F352C06CE061
:1007200081E0F4DE10E307E780CF84E0FADE682F93
:100730006F7784E0EBDE8AE0F4DE682F60688AE0A1
:10074000E5DE60E081E0E2DE512C612C712C411489
:1007500051046104710409F048CFE1CF6EE081E0FB
:10076000D5DE10E102E167CF84E0DBDE682F6F7732
:1007700084E0CCDE8AE0D5DE682F60688AE0C6DEE1
:1007800060E081E0C3DE512C612C712C41145104D6
:100790006104710409F02CCFE1CF8DE0C2DE682F37
:1007A0006F778DE0B3DEC3E00CC08DE0BADE682F5A
:1007B0006F778DE0ABDE86E0B4DE8B7109F44FCF4E
:1007C000C3E08C2FDF91CF911F910F91FF90EF909D
:1007D000DF90CF90BF90AF909F908F907F906F9061
:1007E0005F904F903F900895EF92FF920F931F9369
:1007F000CF93DF9300D000D0CDB7DEB7182F7B01A9
:1008000067E08DE083DEF70110838E010F5F1F4FDD
:10081000970141E0B7018CE0AEDE813059F44981A7
:100820005A816B817C81403151056105710519F058
:1008300083E001C083E00F900F900F900F90DF9145
:10084000CF911F910F91FF90EF900895EF92FF923B
:100850000F931F93CF93DF9300D000D0CDB7DEB7B7
:100860007C0160E08DE052DE83E9F701808380E265
:1008700081838E010F5F1F4F970142E0B7018CE02B
:100880007ADE813071F4F701A7014C5F5F4F90E091
:1008900021919227E417F507D9F7F701248129134D
:1008A00083E00F900F900F900F90DF91CF911F91E9
:1008B0000F91FF90EF9008956830710548F0FC01AA
:1008C00066A177A1762767277627685071093DDDF5
:1008D00008950F931F93CF9322303105E8F0DA018A
:1008E00011968901FD013197E081F0E0FE2FEE279E
:1008F000CC91EC2B6E0F7F1F811D911D02501109B1
:1009000012960230110570F7F9013297EE7F329698
:100910004E0F5F1F21703327232B49F0FA012081EE
:1009200030E0322F2227620F731F811D911D8C0131
:1009300022273327011511052105310591F0DC012E
:10094000CB01AA27BB27BC01CD01600F711F821FFD
:10095000931F8C012227332701151105210531052D
:1009600071F7962F872F80959095CF911F910F91BA
:100970000895AC014A5F5F4F26E0FA01DC01019067
:100980000D922A95E1F726E0E6E4F1E0DA01019024
:100990000D922A95E1F7625F7F4F5ED208950F9323
:1009A0001F93CF93DF93EC018B010C5E1F4F902FB1
:1009B000812F998B888B1B8A1A8A1D8A1C8A80E456
:1009C0008E8B198E188E8A8D9B8DAC8DBD8D8E8FE2
:1009D0009F8FA8A3B9A380914C0190914D01A09144
:1009E0004E01B0914F018A8F9B8FAC8FBD8FAE01AE
:1009F000425F5F4F24E130E060E070E0CB0169DFEF
:100A0000998F888FB801CE01B4DFDF91CF911F910C
:100A10000F9108950F931F93CF93DF93EC018B01F8
:100A2000085F1F4F8AA19BA12CA13DA13BA32AA334
:100A30009DA38CA3902F812F9FA38EA319A618A6E8
:100A40009B01205F3F4FAE01465E5F4F675E7F4F69
:100A500080E090E03EDF99A788A7B801CE019FDF34
:100A6000DF91CF911F910F9108956830710560F06B
:100A7000FC0122A1283041F412A224A135A1285F53
:100A80003F4F35A324A38BDF08950F931F93FC01E1
:100A90002685253409F5068D178D20A131A14091B9
:100AA0004C0150914D0160914E0170914F0104171E
:100AB00015072607370781F460897189762767272C
:100AC0007627645171092789213019F0213119F0F5
:100AD00003C0CBDF01C0F0DE1F910F9108950F938B
:100AE0001F93CF93DF936C31710508F44BC0FC0169
:100AF000268537852115314009F044C0FC01208945
:100B0000318928303105F1F52489358921153140A5
:100B1000C9F5FC0146A157A160A571A500914C0142
:100B200010914D0120914E0130914F014017510716
:100B30006207730739F5EC0120E032E0358B248B36
:100B4000DC0190968C010A5E1F4F26E0F8010190AF
:100B50000D922A95E1F726E0E6E4F1E0D801019054
:100B60000D922A95E1F70C8D1D8D2E8D3F8D0EA3D4
:100B70001FA328A739A74C8F5D8F6E8F7F8F6CE1E5
:100B800070E0F7DEDF91CF911F910F910895FC0186
:100B9000248535852830310539F02830364039F440
:100BA0006E5071099CDF08956E5071096EDF0895D3
:100BB00086E491E003D1089564EC70E080E591E073
:100BC0007CD1892BC9F760E070E080E591E0DFDF40
:100BD0000895CF93C62F5C98962F9F71892BD0D103
:100BE000CC2314F48FEFCCD18FEFCAD15C9ACF9184
:100BF0000895CF93C42F5C986F71862BC1D18C2F31
:100C0000BFD15C9ACF9108955C988FEFB9D15C9A6F
:100C1000109218018FEC97E00197F1F700C00000E7
:100C20000895CF93282F2F7130E02B3131059CF49C
:100C3000829586958770C82FC37080911801C81758
:100C400051F043E06FE180EAD4DF4C2F6FE180E8A0
:100C5000D0DFC0931801CF910895CF93C82FE1DF63
:100C60006C2F80E0B6DFCF910895CF93DF93C82F2C
:100C7000D8DF6C2F80E0ADDFD82F61E06C0F80E013
:100C8000A8DF2D2F30E0A901582BCA01DF91CF91A9
:100C90000895CF93DF93C82FD62FC3DF4D2F6C2F2E
:100CA00080E4A7DFDF91CF9108951F93CF93DF9367
:100CB000C82F162FD72FB5DF412F6C2F80E499DF77
:100CC00061E06C0F4D2F80E494DFDF91CF911F9195
:100CD0000895CF93DF93C82FD62FA3DF4D2F6C2F0E
:100CE00080EA87DFDF91CF910895CF93DF93C82FFC
:100CF000D62F97DF4D2F6C2F80E87BDFDF91CF91D0
:100D00000895EF92FF920F931F93CF93DF93E82EF6
:100D1000F92EEB015C988AE333D1209749F00E2D30
:100D20001F2D8FEF2DD1F80181938F012197C9F7E6
:100D30005C9ADF91CF911F910F91FF90EF900895F2
:100D4000EF92FF920F931F93CF93DF93E82EF92E2C
:100D5000EB015C988AE714D1209741F00E2D1F2DEE
:100D6000F80181918F010CD12197D1F75C9ADF9125
:100D7000CF911F910F91FF90EF900895682F84ED10
:100D800088DF61E082EDB1DF8AEE67DF80FDFCCFB6
:100D900061E082ED9EDF88ED68DF0895CF93DF93F9
:100DA000EB01682F84ED75DFBE0186ED7EDF8AEEF4
:100DB00054DF80FDFCCFDF91CF910895CF93DF9377
:100DC000EC015C9A60E070E088E06FDF60E070E06A
:100DD0008CE06BDF6FEF79E18AE067DF109217013B
:100DE000109216016DE080EC54DF60E081EC51DF81
:100DF00063E382EC4EDF64EC70E08AEC56DF65E181
:100E000084EC47DF62E186EC44DF6CE087EC41DF95
:100E1000688184EE3EDF698185EE3BDF6A8182EE88
:100E200038DF6B8183EE35DF6C8180EE32DF6D81E0
:100E300081EE2FDF60E071E080E0B0DF60E071E024
:100E400080E1ACDF66E774E084E1A8DF64E08FE175
:100E50004CDFDF91CF9108950F931F93CF93DF93D2
:100E60008C01EB010AC08CE1F8DE81FF06C060E86E
:100E70008FE13BDF60E88FE12CDF8FE1EEDE83FD69
:100E8000F2CF60E07AE182E010DF61E070E08CE8B0
:100E90009FE056DFBE01C80153DF60E07AE184E0E5
:100EA00004DFBE01765E86E000DF68E08FE11DDFD3
:100EB000DF91CF911F910F910895CF92DF92EF9222
:100EC000FF920F931F93CF93DF9300D000D0CDB745
:100ED000DEB77C01C62ED72E89E3BFDE8823A1F1C1
:100EE000609116017091170180E0DFDE62E070E032
:100EF00086E191E006DF62E070E0CE01019601DF5D
:100F000062E070E0CE010396FCDE8B8187FF0DC0AE
:100F100089819A8104970C2D1D2D8017910708F463
:100F20008C01B801C701EDDE02C000E010E0609165
:100F3000160170911701615071097F718CE0B5DE67
:100F400060E48EE1D2DE02C000E010E0C8010F9044
:100F50000F900F900F90DF91CF911F910F91FF9005
:100F6000EF90DF90CF90089584B18E6284B9549A47
:100F7000299A5C9A81E58CBD8DB581608DBD0895FF
:0C0F80008EBD0DB407FEFDCF8EB50895A8
:00000001FF
