:1000000001C1189518951895189518951895189573
:1000100018951BC01B9518951895189508C007C012
:1000200022C085C082C084C083C0189518950F93E4
:100030000FB70F931F932F933F934FD43F912F915F
:100040001F910F910FBF0F9118950F930FB70F933B
:100050001F932F933F93CED33F912F911F910F91D9
:100060000FBF0F9118950F930FB70F931F932F93F7
:100070003F9300919401109195010F5F1F4F0093E2
:1000800094011093950100919601109197010F5FD3
:100090001F4F009396011093970100919B011091BF
:1000A0009C010F5F1F4F00939B0110939C012091B7
:1000B0009201203079F400919801109199012091DA
:1000C0009A010F5F1F4F2F4F0093980110939901D2
:1000D00020939A01223079F400919D0110919E01A4
:1000E00020919F010F5F1F4F2F4F00939D01109391
:1000F0009E0120939F0120919201213079F400917B
:10010000A0011091A1012091A2010F5F1F4F2F4F5D
:100110000093A0011093A1012093A2013F912F9180
:100120001F910F910FBF0F9118951895189518955D
:1001300018950DE40093C40000E00093C50000E0B2
:100140000093C00008E10093C10006E00093C200E4
:10015000089500916E00016000936E0001E005BDFE
:100160000091700001600093700006E00093B10000
:10017000089504B5006404BD04B5006804BD04B569
:10018000006104BD04B5006204BD04B5016004BD96
:1001900004B5026004BD00916E00026000936E0021
:1001A00000916E00046000936E00089500271F9177
:1001B0002F91E0E0F1E00193E030E9F7F530D9F775
:1001C0002F931F930895549A3D9A3B9A3C9A3A9ADA
:1001D000399A3898579A219A209A509A509A539A55
:1001E000589858985B98569855985E9A5D9A589A80
:1001F000589808951091C00010721032D9F70093EA
:10020000C6000895F8940FEF0DBF0DE00EBFCEDFCE
:10021000A0DFD9DF8EDF00241124789400919401AF
:100220000B3128F000919501073B08F072D0F6CF12
:10023000009196010A3120F000919701063000F0FC
:10024000EDCF20919201203071F500919B01063C89
:10025000A0F000919C010D3280F0F8942091930160
:10026000213011F42AD301C030D331E02327209369
:10027000930178948BE991E063D000919801063363
:1002800090F0009199010E3670F000919A010130C2
:1002900050F021E02093920188E991E058D080EA63
:1002A00091E055D0DED2089520919201223081F460
:1002B00000919D01063360F000919E010E3640F0E2
:1002C00000919F01013020F0E1D28DE991E03FD013
:1002D000089520919201213091F40091A0010435FC
:1002E00070F00091A1010A3E50F00091A2010A3283
:1002F00030F022E02093920180EA91E028D0089526
:10030000E0D1F89400270093960100939701789428
:10031000089500E11BB110271BB970D0F894E0E6F6
:10032000F1E00191003011F065DFFBCF0027009371
:100330009401009395010093260078940895089500
:10034000F894FC0100270193008378940895F894B1
:10035000FC01002701930193008378940895FB0129
:10036000DC0102C005900D9241505040D8F708952D
:100370004920646F6E74206B6E6F772077686174AC
:100380002074686572652069732062757420492045
:1003900073757370656374206974206C6F6F6B7311
:1003A000206C696B652061206761726261646765BA
:1003B0000D0A00636F6D6D616E643A206F70656E3B
:1003C00000000000636865207A61207879696E79A1
:1003D000612074766F7269742773796120747974FF
:1003E0003F213F213F2100002FE789EA93E0215080
:1003F00080409040E1F700C0000008954FE150E0D8
:1004000064EC73E080E691E0B2C3E6EDF3E01192B4
:1004100083E0E33EF807D9F70895459843988DE0C7
:100420004498459A45988150D9F7439A439808953E
:10043000459843988DE0449A459A45988150D9F75C
:10044000439A43980895089508955FFF2998E6EA2E
:10045000F1E007C028985F9A5F9881E0EE3AF807CC
:1004600051F081918111F6CF289A5F9A5F9881E0CF
:10047000EE3AF807B1F7299A29980895E6EAF1E0EB
:1004800017821682158214821382128211831082BF
:100490000895882399F1813009F442C0823009F42B
:1004A00050C0833009F455C0843009F464C08530ED
:1004B00009F473C0863009F482C0873009F491C012
:1004C000883009F492C0893009F495C01092AD01CA
:1004D0008A3009F46AC08B3009F4A3C081E08093AC
:1004E000AC018093AB018093AA018093A901109283
:1004F000A8018093A7011092A601A7CF81E0809365
:10050000AD018093AC018093AB018093AA018093ED
:10051000A9018093A8011092A7011092A60195CF7E
:100520001092AD018093AC018093AB011092AA01AF
:100530001092A9011092A8011092A7011092A60191
:1005400084CF81E08093AD018093AC011092AB0128
:10055000CACF81E08093AD018093AC018093AB0161
:100560008093AA011092A9011092A8018093A7017B
:100570001092A6016ACF1092AD0181E08093AC0188
:100580008093AB011092AA011092A9018093A80157
:100590008093A7011092A60158CF81E08093AD010E
:1005A0001092AC018093AB018093AA011092A90133
:1005B0008093A8018093A7011092A60146CF81E005
:1005C0008093AD011092AC018093AB018093AA019E
:1005D0008093A9018093A8018093A7011092A6019E
:1005E00034CF81E08093AD019DCF81E08093AD0158
:1005F0008093AC01E9CF81E08093AD018093AC01A1
:10060000D1CF1092AC011092AB011092AA011092BE
:10061000A9011092A80181E08093A7011092A60180
:1006200014CF1092AC011092AB0180CF4598439843
:10063000E6EDF3E007C0449A459A459883E0E33E2F
:10064000F80751F081918111F6CF4498459A459869
:1006500083E0E33EF807B1F7439A43980895419841
:10066000429A419A88EF2CE031E016C02330D9F04D
:100670002230E1F0213011F12223D9F0E22FF0E015
:1006800096B191709327EB51FC4F90832150429883
:10069000429A8F5F883081F08330C8F3243031F77D
:1006A000E0E0F0E0EDCFE4E0F0E0EACFE3E0F0E01E
:1006B000E7CFE1E0F0E0E4CF41980895E2E0F0E038
:1006C000DFCF6F927F928F929F92AF92BF92CF9225
:1006D000DF92EF92FF920F931F93CF93DF9300D09F
:1006E000CDB7DEB7BCDF85EEA82E83E0B82E98EB41
:1006F000692E91E0792E26ED822E23E0922E36EEA1
:10070000C32ED12C00E010E0E12CF12C91E042E06E
:1007100022C080818F5F8083833070F01092A001AF
:100720001092A1011092A201E114F10409F45AC03F
:1007300080919201813061F10D301105C1F08FEF90
:10074000E81AF80AEFEF6E1A7E0AFFE0CF1AD10816
:100750008FEF881A980AF50181915F010F5F1F4F93
:10076000F3018111D6CF10820D30110541F70F90A2
:100770000F90DF91CF911F910F91FF90EF90DF903D
:10078000CF90BF90AF909F908F907F906F90089583
:100790002091E3033091E4032C153D0568F6D092D7
:1007A000E403C092E303E6EDF3E0119283E0E33E5D
:1007B000F807D9F79093D603F40190834A8399837D
:1007C00035DF2091F2033091F3034A8199812C1592
:1007D0003D0508F008CFD092F303C092F203E092F7
:1007E000F403AACF853118F040939201A8CF10925C
:1007F0009201A5CF1092AD011092AC011092AB0105
:100800001092AA011092A9011092A8011092A701BA
:100810001092A6011ADE8091A50158988130C1F08E
:10082000823059F05B98589A81E08093A5018091BD
:10083000F5032FDE1092A301089558985B9A83E088
:100840008093A5018091A40124DE1092A301089554
:100850005B98589A82E08093A5018091CD0319DEC0
:10086000E9CF1092F5031092CD031092A4011092DB
:10087000E4031092E303E6EDF3E0119283E0E33E3C
:10088000F807D9F781E08093D603D0CE9091D603B4
:1008900081E08927E6EDF3E0119293E0E33EF9076A
:1008A000D9F78093D603E091F403EE2329F0F0E02A
:1008B000EA52FC4F81E08083B9CE8BE08093F50350
:1008C0008093A4018093CD03A8CD8AE08093F503A3
:1008D0008093A4018093CD03ABCD089584B18C6245
:1008E00084B92498229A2A9A2C982A9A81E58CBD58
:1008F0008DB581608DBD08958EBD0DB407FEFDCF11
:100900008EB508958FEF8EBD0DB407FEFDCF8EB569
:1009100008950F931F93CF93DF9300D000D0CDB7EE
:10092000DEB72A9880644C835B836A837983E4DF33
:100930007981872FE1DF6A81862FDEDF5B81852F5A
:10094000DBDF4C81842FD8DF85E9D6DF00E002C0F1
:10095000015021F0D7DF182F8F3FD1F3D3DF2A9A30
:10096000812F0F900F900F900F90DF91CF911F91DB
:100970000F910895CF93DF932A98CAE08FEFBCDFE1
:10098000FFFFFFFFFFFFFFFFFFFFFFFFFFFFFFFF77
:10099000FFFFFFFFFFFFFFFFFFFFFFFFFFFFFFFF67
:1009A000FFFFFFFFFFFFFFFFFFFFFFFFFFFFFFFF57
:1009B000FFFFFFFFFFFFFFFFFFFFFFFFFFFFFFFF47
:1009C0008050C15000E040E01000800080118000A5
:1009D00081E30A9A00EA10C000E020C000E010C0E5
:1009E000880181808691008040E08801818081912A
:1009F000088509808180AD92008040809A008180C6
:100A0000FF926B017C0149015A01AB01BC0199E0E5
:100A1000440F551F661F771F9A95D1F780E279DF43
:100A2000882349F0FF90EF90DF90CF90BF90AF9078
:100A30009F908F900895B501A4014150510961091B
:100A400071094C0DFF1D6E1D7F1D89E0440F551F60
:100A5000661F771F8A95D1F781E25BDF8111E2CFB4
:100A600040E050E0BA0186E2FF90EF90DF90CF9037
:100A7000BF90AF909F908F904CCFCF93DF93AB01FF
:100A8000BC0189E0440F551F661F771F8A95D1F777
:100A900081E13FDF81111AC02A98C0E0D0E002C096
:100AA0002197B9F02FDF8E3FD9F7C0E0D0E02ADFE1
:100AB000FE01E353FE4F80832196C11582E0D807E3
:100AC000B1F720DF1FDF1EDF2A9A80E0DF91CF9190
:100AD00008952A9A81E0DF91CF910895CF93DF9313
:100AE000AB01BC0189E0440F551F661F771F8A9533
:100AF000D1F788E10EDF882319F0DF91CF910895B7
:100B00002A988EEFF9DEC0E0D0E0FE01E353FE4FFD
:100B10008081F2DE2196C11522E0D207B1F78FEF76
:100B2000EBDE8FEFE9DEEEDE982F9F71953021F03E
:100B30002A9ADF91CF910895C0E0D0E002C02196BB
:100B400099F0E0DE8823D9F32A9A8FEFD5DE2A9830
:100B500005C0CE010196219639F0EC01D3DE882341
:100B6000C1F32A9A80E0C9CF2A9A81E0C6CFFB015F
:100B7000DC0102C005900D9241505040D8F7089515
:100B8000FFFFFFFFFFFFFFFFFFFFFFFFFFFFFFFF75
:100B9000FFFFFFFFFFFFFFFFFFFFFFFFFFFFFFFF65
:100BA000FFFFFFFFFFFFFFFFFFFFFFFFFFFFFFFF55
:100BB000FFFFFFFFFFFFFFFFFFFFFFFFFFFFFFFF45
:100DD000FFFFFFFFFFEAFFFFFFFFFFFFFFFFFFFF38
:100DE000FFFFFFFFFFFFFFFFFFFFFFFFFFFFFFFF13
:100DF000FFFFFFFFFFFFFFFFFFFFFFFFFFFFFFFF03
:100E0000FFFFFFFFFFFFFFFFFFFFFFFFFFFFFFFFF2
:100E1000FFFFFFFFFFFFFFFFFFFFFFFFFFFFFFFFE2
:100E2000FFFFFFFFFFFFFFFFFFFFFFFFFFFFFFFFD2
:100E3000FFFFFFFFFFFFFFFFFFFFFFFFFFFFFFFFC2
:100E4000FFFFFFFFFFFFFFFFFFFFFFFFFFFFFFFFB2
:100E5000FFFFFFFFFFFFFFFFFFFFFFFFFFFFFFFFA2
:100E6000FFFFFFFFFFFFFFFFFFFFFFFFFFFFFFFF92
:100E7000FFFFFFFFFFFFFFFFFFFFFFFFFFFFFFFF82
:100E8000FFFFFFFFFFFFFFFFFFFFFFFFFFFFFFFF72
:100E9000FFFFFFFFFFFFFFFFFFFFFFFFFFFFFFFF62
:100EA000FFFFFFFFFFFFFFFFFFFFFFFFFFFFFFFF52
:100EB000FFFFFFFFFFFFFFFFFFFFFFFFFFFFFFFF42
:100EC000FFFFFFFFFFFFFFFFFFFFFFFFFFFFFFFF32
:100ED000FFFFFFFF6AFFFFFFFFFFFFFFFFFFFFFFB7
:100EE000FFFFFFFFFFFFFFFFFFFFFFFFFFFFFFFF12
:100EF000FFFFFFFFFFFFFFFFFFFFFFFFFFFFFFFF02
:100F0000FFFFFFFFFFFFFFFFFFFFFFFFFFFFFFFFF1
:100F1000FFFFFFFFFFFFFFFFFFFFFFFFFFFFFFFFE1
:100F2000FFFFFFFFFFFFFFFFFFFFFFFFFFFFFFFFD1
:100F3000FFFFFFFFFFFFFFFFFFFFFFFFFFFFFFFFC1
:100F4000FFFFFFFFFFFFFFFFFFFFFFFFFFFFFFFFB1
:100F5000FFFFFFFFFFFFFFFFFFFFFFFFFFFFFFFFA1
:100F6000FFFFFFFFFFFFFFFFFFFFFFFFFFFFFFFF91
:100F7000FFFFFFFFFFFFFFFFFFFFFFFFFFFFFFFF81
:100F8000FFFFFFFFFFFFFFFFFFFFFFFFFFFFFFFF71
:100F9000FFFFFFFFFFFFFFFFFFFFFFFFFFFFFFFF61
:100FA000FFFFFFFFFFFFFFFFFFFFFFFFFFFFFFFF51
:100FB000FFFFFFFFFFFFFFFFFFFFFFFFFFFFFFFF41
:100FC000FFFFFFFFFFFFFFFFFFFFFFFFFFFFFFFF31
:100FD000FFFFFFFFFFEAFFFFFFFFFFFFFFFFFFFF36
:100FE000FFFFFFFFFFFFFFFFFFFFFFFFFFFFFFFF11
:100FF000FFFFFFFFFFFFFFFFFFFFFFFFFFFFFFFF01
:10100000FFFFFFFFFFFFFFFFFFFFFFFFFFFFFFFFF0
:10101000FFFFFFFFFFFFFFFFFFFFFFFFFFFFFFFFE0
:06185000FFFFFFFF2AFF6D
:00000001FF
