:10000000FFC0189518951895189518951895189576
:1000100018951BC0189518951895189508C007C015
:1000200022C085C082C084C083C0189518950F93E4
:100030000FB70F931F932F933F936DD43F912F9141
:100040001F910F910FBF0F9118950F930FB70F933B
:100050001F932F933F93DAD33F912F911F910F91CD
:100060000FBF0F9118950F930FB70F931F932F93F7
:100070003F9300910201109103010F5F1F4F009306
:1000800002011093030100910401109105010F5F1B
:100090001F4F009304011093050100910901109175
:1000A0000A010F5F1F4F0093090110930A0120916D
:1000B0000001203079F40091060110910701209190
:1000C00008010F5F1F4F2F4F009306011093070188
:1000D00020930801223079F400910B0110910C015A
:1000E00020910D010F5F1F4F2F4F00930B011093B5
:1000F0000C0120930D0120910001213079F4009131
:100100000E0110910F01209110010F5F1F4F2F4F13
:1001100000930E0110930F01209310013F912F9136
:100120001F910F910FBF0F9118951895189518955D
:1001300018950DE40093C40000E00093C50000E0B2
:100140000093C00008EF0093C10006E00093C200D6
:10015000089500916E00016000936E0001E005BDFE
:100160000091700001600093700006E00093B10000
:10017000089504B5006404BD04B5006804BD04B569
:10018000006104BD04B5006204BD04B5016004BD96
:1001900004B5026004BD00916E00026000936E0021
:1001A00000916E00046000936E00089500271F9177
:1001B0002F91E0E0F1E00193E030E9F7F530D9F775
:1001C0002F931F930895549A3D9A3B9A3C9A3A9ADA
:1001D000399A3898579A219A209A539A509A519A54
:1001E0005B9858985998569855985E9A5D9A0895D4
:1001F0001091C00010721032D9F70093C600089514
:10020000F8940FEF0DBF04E00EBFD0DFA2DFDBDFFD
:1002100011240024B4D07894009102010B3128F00D
:1002200000910301073B08F075D0009104010A31E9
:1002300040F000910501063020F063D003D035D0A6
:1002400049D0EACF20910001203071F500910901D9
:10025000063CA0F000910A010D3280F0F894209144
:100260000101213011F447D301C04DD331E02327E0
:1002700020930101789489E091E05CD0009106011F
:10028000063390F0009107010E3670F000910801DE
:10029000013050F021E02093000186E091E051D040
:1002A0008EE091E04ED0F5D20895209100012230E9
:1002B00081F400910B01063360F000910C010E36C1
:1002C00040F000910D01013020F0F9D28BE091E077
:1002D00038D0089520910001213091F400910E0151
:1002E000043570F000910F010A3E50F000911001AA
:1002F0000A3230F022E0209300018EE091E021D01C
:100300000895FED1F894002700930401009305019D
:100310007894089500E11BB110271BB985D0F8949B
:1003200000270093020100930301009326007894B4
:1003300008950895F894FC010027019300837894B0
:100340000895F894FC0100270193019300837894A9
:100350000895636F6D6D616E643A206F70656E0015
:100360002FE789EA93E0215080409040E1F700C0F8
:10037000000008950895089508950895089582E06D
:10038000809300011092470110924601109248019B
:100390001092110181E0809313018BE08093490159
:1003A0001092290110921201E9E3F1E0119281E02B
:1003B000E634F807D9F7EAE2F1E081E0819391E0D1
:1003C000E733F907D9F7ECE1F1E0119281E0E93286
:1003D000F807D9F7E4E1F1E0119291E0EC31F90787
:1003E000D9F710923801109237010895EAE2F1E04E
:1003F000119281E0E733F807D9F7089545984398BB
:100400008DE04498459A45988150D9F7439A43988E
:100410000895459843988DE0449A459A45988150AF
:10042000D9F7439A439808950895883C910520F19F
:1004300020E030E0845691092F5F3F4F883C9105C2
:10044000C8F7982F2F5F3DEC939F812D112486953F
:1004500086958695839F312D112436953695369550
:100460009AE0399F80191124809312012093290169
:100470008BE0809349010895982F29E2829F212DD6
:10048000112422952F70DFCF5F982998E4E1F1E0E5
:1004900007C028985F9A5F9881E0EC31F80751F027
:1004A00081918111F6CF289A5F9A5F9881E0EC31B3
:1004B000F807B1F7299A29980895E4E1F1E0178245
:1004C000168215821482138212821182108208957C
:1004D000882399F1813009F442C0823009F450C078
:1004E000833009F455C0843009F464C0853009F4C0
:1004F00073C0863009F482C0873009F491C0883017
:1005000009F492C0893009F495C010921B018A3019
:1005100009F496C08B3009F4A3C081E080931A01DE
:10052000809319018093180180931701109216018E
:100530008093150110921401A7CF81E080931B01D5
:1005400080931A01809319018093180180931701F9
:1005500080931601109215011092140195CF1092FC
:100560001B0180931A0180931901109218011092B7
:10057000170110921601109215011092140184CFE8
:1005800081E080931B0180931A0110921901CACF58
:1005900081E080931B0180931A018093190180935D
:1005A00018011092170110921601809315011092F4
:1005B00014016ACF10921B0181E080931A0180938D
:1005C000190110921801109217018093160180935F
:1005D00015011092140158CF81E080931B011092F5
:1005E0001A018093190180931801109217018093CA
:1005F0001601809315011092140146CF81E080937B
:100600001B0110921A0180931901809318018093A5
:10061000170180931601809315011092140134CFB5
:1006200081E080931B019DCF81E080931B0180932B
:100630001A01E9CF81E080931B0180931A01D1CF89
:1006400010921A01109219011092180110921701BC
:100650001092160181E0809315011092140114CFBD
:1006600010921A011092190180CF45984398EAE23E
:10067000F1E007C0449A459A459881E0E733F807CE
:1006800051F081918111F6CF4498459A459881E0C7
:10069000E733F807B1F7439A439808954198429A8F
:1006A000419A88EF2CE031E016C02330D9F0223097
:1006B000E1F0213011F12223D9F0E22FF0E096B1E0
:1006C000E75CFE4F91709327908321504298429AA5
:1006D0008F5F883081F08330C8F3243031F7E0E059
:1006E000F0E0EDCFE4E0F0E0EACFE3E0F0E0E7CFE8
:1006F000E1E0F0E0E4CF41980895E2E0F0E0DFCF00
:100700008F929F92AF92BF92CF92DF92EF92FF9221
:100710000F931F93CF93DF93C1DF89E3C82E81E04E
:10072000D82ECCE1D1E096EEA92EB12C00E010E05D
:10073000E12CF12C8824839422E0922E1DC0988114
:100740009F5F9883933070F010920E0110920F010A
:1007500010921001E114F10409F450C080910001DD
:10076000813011F10D30110591F08FEFE81AF80A80
:100770002196EAE0AE1AB108F60181916F010F5F90
:100780001F4F8111DCCF18820D30110571F7DF91F9
:10079000CF911F910F91FF90EF90DF90CF90BF907E
:1007A000AF909F908F90089580913701909138017C
:1007B0008A159B05B8F6B0923801A0923701C501A1
:1007C00034DEEAE2F1E0119281E0E733F807D9F78D
:1007D00080922A01F701E65DFE4F808246DF80911C
:1007E0004601909147018A159B0508F0BBCFB09256
:1007F0004701A0924601E0924801B4CF953118F02C
:1008000090920001B2CF10920001AFCFCF9310921F
:100810001B0110921A0110921901109218011092E6
:1008200017011092160110921501109214012CDE7E
:10083000C0911301C130E1F0C23069F058985B9863
:10084000599A81E0809313018091490141DE109211
:100850001101CF910895599858985B9A83E080933D
:1008600013018091120134DE10921101CF9108958D
:1008700059985B98589A82E08093130180912901DE
:1008800027DE809129018A3010F7C0931401FCDD26
:10089000DECF8BE080934901109229011092120162
:1008A0001092380110923701EAE2F1E0119281E0F2
:1008B000E733F807D9F781E080932A01D6CE8091FB
:1008C000460190914701B1DD90912A0181E089278D
:1008D000EAE2F1E0119291E0E733F907D9F780936A
:1008E0002A01E0914801EE2329F0F0E0E65DFE4F99
:1008F00081E08083BACE8BE080934901809312011E
:10090000809329017BCD8AE0809349018093120175
:08091000809329017ECD0895BA
:00000001FF
