:10000000AFC01895189518951895189518951895C6
:100010001895189518951895189518951895189578
:1000200006C064C061C063C062C0189518950F9384
:100030000FB70F931F932F933F93009100011091DF
:1000400001010F5F1F4F0093000110930101009108
:100050000201109103010F5F1F4F009302011093E3
:10006000030100910401109105010F5F1F4F0093E0
:1000700004011093050100910601109107010F5F23
:100080001F4F009306011093070100910801109182
:1000900009010F5F1F4F00930801109309010091A0
:1000A0000A0110910B010F5F1F4F00930A0110937B
:1000B0000B0100910C0110910D010F5F1F4F009378
:1000C0000C0110930D0100910E0110910F010F5FB3
:1000D0001F4F00930E0110930F013F912F911F911D
:1000E0000F910FBF0F9118951895189518951895A1
:1000F00000E50093C40000E00093C50000E0009319
:10010000C00008EF0093C10006E00093C20008950C
:1001100000916E00016000936E0005E005BD08953A
:1001200000271F912F91E0E0F1E00193E030E9F723
:10013000F530D9F72F931F930895569A559A279A19
:100140003B9A579A5F9A3A98429A2098289808952D
:100150001091C00010721032D9F70093C6000895B4
:10016000F894AAD00FEF0DBF04E00EBFD9DFD0DFA7
:10017000BFDFE3DF1124AAD07894009100010F3291
:1001800028F000910101003008F06DC018D52091D1
:100190001801213069F42F9A00910401003140F0D8
:1001A00000910501003020F02227209318012F989C
:1001B00020911A01213069F4439A00910A010F320B
:1001C00040F000910B01003020F0222720931A010B
:1001D000439820911601213069F42F9A009108016B
:1001E0000F3640F000910901003020F022272093C3
:1001F00016012F9820911201213089F4439A5E9ABA
:100200005F98009102010F3450F00091030100301B
:1002100030F022272093120143985E985F9A209134
:100220001401213069F4439A00910C010F3440F01D
:1002300000910D01003020F02227209314014398F3
:10024000329901C0F2D0189B01C0EFD00091060195
:10025000053040F000910701003020F0E9D086E041
:1002600091E01BD08ACF00E21BB110271BB9F89494
:10027000CEE5D1E0E991F88100C00191003011F0A4
:1002800067DFFBCFF8940027009300010093010182
:1002900000932600789471CF0895F894FC0100270C
:1002A0000193008378940895636F6D6D616E643A75
:1002B000206F70656E0000002FE880ED93E0215004
:1002C00080409040E1F700C0000008955E9AE1E2AE
:1002D000F1E0F0935F01E0935E0189E680839EE6A2
:1002E0009183828384E783838AE08483158255D651
:1002F00028D1E6E7F1E010828EE4818382E48283F4
:100300008CE4838385E5848385E4858380EC98EAA7
:10031000A1E0BBE480937C0190937D01A0937E01DA
:10032000B0937F018FEF9FEFAFEFB0E0809372014A
:1003300090937301A0937401B093750180EC98EAD7
:10034000A1E0B1E08093440290934502A09346025D
:10035000B093470230D45E980895089581E0809369
:10036000160188E091E099DF089581E080931401FF
:10037000089581E0809312018093140182E091E05E
:100380008CDF8CE091E089DF0895CF93DF93EC015F
:1003900081E0809318018AA5833629F58BA58F36D5
:1003A00011F58CA58D36F9F48DA58D36E1F48EA569
:1003B0008136C9F48FA58E36B1F488A9843699F4B4
:1003C00089A98A3381F48AA9803269F48BA98F368E
:1003D00051F48CA9803739F48DA9853621F48EA982
:1003E0008E3609F4C6DF8AA5843681F48BA585365E
:1003F00069F48CA58E3651F48DA5893639F48EA515
:10040000853621F48FA5843609F4A8DF8FE68AA704
:100410008BE68BA762E070E0CE01FFD284E091E032
:100420003CDFDF91CF9108950895A3DF08950895EB
:1004300062E671E082E5DBD180935D01813009F0F5
:1004400067C080911801811163C082E691E001D2FA
:1004500080935D01813009F05BC080931A0186E0D2
:1004600091E01BDF8AE091E018DFE0E8F1E088E04E
:1004700090E09587848788EB868387E287838BEE7D
:10048000808781E881878AEC828786E983878DE887
:1004900090E793A382A395A384A383E682A781E632
:1004A00083A782E784A784E685A78AE386A780E2FC
:1004B00087A7A2E6B1E08C9180AB11968C91119741
:1004C00081AB12968C91129782AB13968C9183AB71
:1004D00084E080935D0185E4868780EC98EAA1E062
:1004E000BDE0828F938FA48FB58F80917C01909116
:1004F0007D01A0917E01B0917F01868F978FA0A38F
:10050000B1A381E1878B17866AE070E0CF0185D2C5
:100510000895CF93C62F2A98880F8E774CD58C2FAD
:100520004AD52A9ACF9108952A98880F8E778068A5
:1005300042D580E040D52A9A08956FE081E0E9DF56
:100540000895FBDF6DE88AE2E4DF6EE38BE2E1DF32
:100550006EE18CE2DEDF60E08DE2DBDF60E485E10E
:10056000D8DF6DE381E1D5DF84E1DEDF982F937082
:1005700021F4682F636084E1CCDF08953F924F92AD
:100580005F926F927F928F929F92AF92BF92CF9223
:10059000DF92EF92FF920F931F93CF93DF93982EEA
:1005A000F62EE72E442E822E332E58018CE098161C
:1005B00009F4BEC0EEE09E1609F4D9C084E0B4DFB1
:1005C000682F6F7784E0A5DF8AE0AEDF682F606870
:1005D0008AE09FDF60E081E09CDF512C612C712C70
:1005E0004114510461047104D9F010E000E005C029
:1005F00010E307E702C010E102E1CF2DDE2DC12C90
:10060000D12C7601699189E084DFFFEFCF1ADF0AF0
:10061000EF0AFF0AC414D504E604F70498F302C0F5
:1006200010E000E0692D81E074DF8CE0981206C0D4
:100630008DE07ADF682F60688DE06BDF84E074DF27
:10064000F82EC0E0D0E0116009C084E06DDFF82E24
:100650002196CF3CE7E0DE0709F4A2C08F2D81236D
:10066000A1F3A6C00170F02211F0C2E001C0C1E008
:10067000FCE09F12A9C08AE057DF482E8CE054DFCF
:10068000282F2770A9F0842D90E00197880F991FDB
:10069000880F991F880F991F820F911DAA2797FD18
:1006A000A095BA2FF50180839183A283B38311C0F3
:1006B000842D90E0880F991F880F991F880F991F2C
:1006C000AA2797FDA095BA2FF50180839183A28375
:1006D000B383442071F0842D813108F080E1482EED
:1006E000512C612C712C411451046104710429F4C2
:1006F0006BC0412C512C32014394082D132DC12C79
:10070000D12C760189E010DFF80181938F01FFEF92
:10071000CF1ADF0AEF0AFF0AC414D504E604F7046F
:1007200088F352C06CE081E0F4DE10E307E780CF8D
:1007300084E0FADE682F6F7784E0EBDE8AE0F4DE97
:10074000682F60688AE0E5DE60E081E0E2DE512C3F
:10075000612C712C411451046104710409F048CFDB
:10076000E1CF6EE081E0D5DE10E102E167CF84E009
:10077000DBDE682F6F7784E0CCDE8AE0D5DE682F81
:1007800060688AE0C6DE60E081E0C3DE512C612C47
:10079000712C411451046104710409F02CCFE1CF94
:1007A0008DE0C2DE682F6F778DE0B3DEC3E00CC052
:1007B0008DE0BADE682F6F778DE0ABDE86E0B4DEC9
:1007C0008B7109F44FCFC3E08C2FDF91CF911F9134
:1007D0000F91FF90EF90DF90CF90BF90AF909F90E0
:1007E0008F907F906F905F904F903F900895EF9221
:1007F000FF920F931F93CF93DF9300D000D0CDB71C
:10080000DEB7182F7B0167E08DE083DEF7011083F0
:100810008E010F5F1F4F970141E0B7018CE0AEDE04
:10082000813059F449815A816B817C814031510575
:100830006105710519F083E001C083E00F900F900E
:100840000F900F90DF91CF911F910F91FF90EF903C
:100850000895EF92FF920F931F93CF93DF9300D0F1
:1008600000D0CDB7DEB77C0160E08DE052DE83E9D9
:10087000F701808380E281838E010F5F1F4F970114
:1008800042E0B7018CE07ADE813071F4F701A70114
:100890004C5F5F4F90E021919227E417F507D9F75D
:1008A000F7012481291383E00F900F900F900F9090
:1008B000DF91CF911F910F91FF90EF9008956830D5
:1008C000710548F0FC0166A177A176276727762796
:1008D000685071095ADD08950F931F93CF9322300A
:1008E0003105E8F0DA0111968901FD013197E081C7
:1008F000F0E0FE2FEE27CC91EC2B6E0F7F1F811DB9
:10090000911D0250110912960230110570F7F9017C
:100910003297EE7F32964E0F5F1F21703327232BC5
:1009200049F0FA01208130E0322F2227620F731F35
:10093000811D911D8C0122273327011511052105E9
:10094000310591F0DC01CB01AA27BB27BC01CD0109
:10095000600F711F821F931F8C01222733270115FF
:1009600011052105310571F7962F872F80959095F8
:10097000CF911F910F910895AC014A5F5F4F26E020
:10098000FA01DC0101900D922A95E1F726E0E6E7F5
:10099000F1E0DA0101900D922A95E1F7625F7F4F55
:1009A00074D208950F931F93CF93DF93EC018B01C3
:1009B0000C5E1F4F902F812F998B888B1B8A1A8A70
:1009C0001D8A1C8A80E48E8B198E188E8A8D9B8DD1
:1009D000AC8DBD8D8E8F9F8FA8A3B9A380917C0114
:1009E00090917D01A0917E01B0917F018A8F9B8FB4
:1009F000AC8FBD8FAE01425F5F4F24E130E060E01D
:100A000070E0CB0169DF998F888FB801CE01B4DF28
:100A1000DF91CF911F910F9108950F931F93CF9363
:100A2000DF93EC018B01085F1F4F8AA19BA12CA1D2
:100A30003DA13BA32AA39DA38CA3902F812F9FA30D
:100A40008EA319A618A69B01205F3F4FAE01465EFC
:100A50005F4F675E7F4F80E090E03EDF99A788A7F9
:100A6000B801CE019FDFDF91CF911F910F910895C3
:100A70006830710560F0FC0122A1283041F412A217
:100A800024A135A1285F3F4F35A324A38BDF089510
:100A90000F931F93FC012685253409F5068D178DCC
:100AA00020A131A140917C0150917D0160917E0196
:100AB00070917F01041715072607370781F46089B5
:100AC0007189762767277627645171092789213034
:100AD00019F0213119F003C0CBDF01C0F0DE1F9106
:100AE0000F9108950F931F93CF93DF936C3171058E
:100AF00008F44BC0FC01268537852115314009F0EB
:100B000044C0FC012089318928303105F1F5248960
:100B1000358921153140C9F5FC0146A157A160A5D1
:100B200071A500917C0110917D0120917E01309191
:100B30007F01401751076207730739F5EC0120E088
:100B400032E0358B248BDC0190968C010A5E1F4FBE
:100B500026E0F80101900D922A95E1F726E0E6E7FC
:100B6000F1E0D80101900D922A95E1F70C8D1D8DD1
:100B70002E8D3F8D0EA31FA328A739A74C8F5D8F05
:100B80006E8F7F8F6CE170E0F7DEDF91CF911F9168
:100B90000F910895FC01248535852830310539F001
:100BA0002830364039F46E5071099CDF08956E503C
:100BB00071096EDF089586E791E003D1089564EC32
:100BC00070E080E891E092D1892BC9F760E070E095
:100BD00080E891E0DFDF0895CF93C62F5C98962FD1
:100BE0009F71892BE8D1CC2314F48FEFE4D18FEFE0
:100BF000E2D15C9ACF910895CF93C42F5C986F7126
:100C0000862BD9D18C2FD7D15C9ACF9108955C983F
:100C10008FEFD1D15C9A1092200184E39CE0019780
:100C2000F1F700C000000895CF93282F2F7130E016
:100C30002B3131059CF4829586958770C82FC3703F
:100C400080912001C81751F043E06FE180EAD4DFC2
:100C50004C2F6FE180E8D0DFC0932001CF91089541
:100C6000CF93C82FE1DF6C2F80E0B6DFCF910895DE
:100C7000CF93DF93C82FD8DF6C2F80E0ADDFD82F64
:100C800061E06C0F80E0A8DF2D2F30E0A901582B28
:100C9000CA01DF91CF910895CF93DF93C82FD62F4C
:100CA000C3DF4D2F6C2F80E4A7DFDF91CF91089534
:100CB0001F93CF93DF93C82F162FD72FB5DF412F68
:100CC0006C2F80E499DF61E06C0F4D2F80E494DF9E
:100CD000DF91CF911F910895CF93DF93C82FD62F27
:100CE000A3DF4D2F6C2F80EA87DFDF91CF9108952E
:100CF000CF93DF93C82FD62F97DF4D2F6C2F80E82F
:100D00007BDFDF91CF910895EF92FF920F931F93B6
:100D1000CF93DF93E82EF92EEB015C988AE34BD159
:100D2000209749F00E2D1F2D8FEF45D1F8018193AB
:100D30008F012197C9F75C9ADF91CF911F910F9195
:100D4000FF90EF900895EF92FF920F931F93CF9330
:100D5000DF93E82EF92EEB015C988AE72CD12097DF
:100D600041F00E2D1F2DF80181918F0124D1219783
:100D7000D1F75C9ADF91CF911F910F91FF90EF9087
:100D80000895682F84ED88DF61E082EDB1DF8AEE9F
:100D900067DF80FDFCCF61E082ED9EDF88ED68DFDC
:100DA0000895CF93DF93EB01682F84ED75DFBE01CB
:100DB00086ED7EDF8AEE54DF80FDFCCFDF91CF91A0
:100DC0000895CF93DF93EC015C9A2FE688E399E3D3
:100DD000215080409040E1F700C0000018DF2FEC68
:100DE00082E193E1215080409040E1F700C0000093
:100DF00062E085E751DF60E070E088E059DF60E0A5
:100E000070E08CE055DF6FEF79E18AE051DF1092FE
:100E10001F0110921E016DE080EC3EDF60E081EC6E
:100E20003BDF63E382EC38DF64EC70E08AEC40DFA8
:100E300065E184EC31DF62E186EC2EDF6CE087EC6B
:100E40002BDF688184EE28DF698185EE25DF6A81EA
:100E500082EE22DF6B8183EE1FDF6C8180EE1CDF70
:100E60006D8181EE19DF60E071E080E09ADF60E083
:100E700071E080E196DF66E774E084E192DF64E090
:100E80008FE136DFDF91CF9108950F931F93CF93BA
:100E9000DF938C01EB010AC08CE1E2DE81FF06C02A
:100EA00060E88FE125DF60E88FE116DF8FE1D8DEB3
:100EB00083FDF2CF60E07AE182E0FADE61E070E08B
:100EC00082EC9FE040DFBE01C8013DDF60E07AE1D7
:100ED00084E0EEDEBE01765E86E0EADE68E08FE169
:100EE00007DFDF91CF911F910F910895CF92DF928D
:100EF000EF92FF920F931F93CF93DF9300D000D018
:100F0000CDB7DEB77C01C62ED72E89E3A9DE8823B4
:100F1000A1F160911E0170911F0180E0C9DE62E0C5
:100F200070E08EE191E0F0DE62E070E0CE010196CB
:100F3000EBDE62E070E0CE010396E6DE8B8187FF98
:100F40000DC089819A8104970C2D1D2D8017910762
:100F500008F48C01B801C701D7DE02C000E010E040
:100F600060911E0170911F01615071097F718CE0C9
:100F70009FDE60E48EE1BCDE02C000E010E0C8014C
:100F80000F900F900F900F90DF91CF911F910F91C5
:100F9000FF90EF90DF90CF90089584B18C6284B978
:100FA0002498549A2A9A2C985C9A81E58CBD8DB528
:100FB00081608DBD08958EBD0DB407FEFDCF8EB549
:020FC000089592
:00000001FF
